{
  "contractName": "Gateway",
  "abi": [
    {
      "constant": true,
      "inputs": [
        {
          "name": "",
          "type": "uint256"
        }
      ],
      "name": "referenceTransactionToOwner",
      "outputs": [
        {
          "name": "",
          "type": "address"
        }
      ],
      "payable": false,
      "stateMutability": "view",
      "type": "function"
    },
    {
      "anonymous": false,
      "inputs": [
        {
          "indexed": false,
          "name": "walletId",
          "type": "address"
        },
        {
          "indexed": false,
          "name": "TransactionRef",
          "type": "uint256"
        }
      ],
      "name": "ReadyForTransaction",
      "type": "event"
    },
    {
      "constant": false,
      "inputs": [],
      "name": "initializeTransaction",
      "outputs": [],
      "payable": false,
      "stateMutability": "nonpayable",
      "type": "function"
    },
    {
      "constant": false,
      "inputs": [
        {
          "name": "_TransactionRef",
          "type": "uint256"
        },
        {
          "name": "_Amount",
          "type": "uint256"
        }
      ],
      "name": "depositFunds",
      "outputs": [],
      "payable": false,
      "stateMutability": "nonpayable",
      "type": "function"
    },
    {
      "constant": false,
      "inputs": [
        {
          "name": "_Amount",
          "type": "uint256"
        }
      ],
      "name": "withdrawFunds",
      "outputs": [],
      "payable": false,
      "stateMutability": "nonpayable",
      "type": "function"
    },
    {
      "constant": true,
      "inputs": [],
      "name": "checkErc20Balance",
      "outputs": [
        {
          "name": "",
          "type": "uint256"
        }
      ],
      "payable": false,
      "stateMutability": "view",
      "type": "function"
    }
  ],
  "bytecode": "0x6080604052733e0fcaf8cedc54bd3b498a8bd12f14ff5d5c1fbf6000806101000a81548173ffffffffffffffffffffffffffffffffffffffff021916908373ffffffffffffffffffffffffffffffffffffffff160217905550738be758ae4820433c59b9e6146de8226f79a95c71600160006101000a81548173ffffffffffffffffffffffffffffffffffffffff021916908373ffffffffffffffffffffffffffffffffffffffff160217905550600160009054906101000a900473ffffffffffffffffffffffffffffffffffffffff16600260006101000a81548173ffffffffffffffffffffffffffffffffffffffff021916908373ffffffffffffffffffffffffffffffffffffffff160217905550600160045534801561012157600080fd5b5061084a806101316000396000f30060806040526004361061006d576000357c0100000000000000000000000000000000000000000000000000000000900463ffffffff168063155dd5ee1461007257806361638ed51461009f57806389bc2246146100d6578063b9d3c28714610143578063c1ffffb61461016e575b600080fd5b34801561007e57600080fd5b5061009d60048036038101908080359060200190929190505050610185565b005b3480156100ab57600080fd5b506100d46004803603810190808035906020019092919080359060200190929190505050610510565b005b3480156100e257600080fd5b506101016004803603810190808035906020019092919050505061064e565b604051808273ffffffffffffffffffffffffffffffffffffffff1673ffffffffffffffffffffffffffffffffffffffff16815260200191505060405180910390f35b34801561014f57600080fd5b50610158610681565b6040518082815260200191505060405180910390f35b34801561017a57600080fd5b50610183610749565b005b60008060008060009054906101000a900473ffffffffffffffffffffffffffffffffffffffff1673ffffffffffffffffffffffffffffffffffffffff163373ffffffffffffffffffffffffffffffffffffffff16141515156101e657600080fd5b600a80858115156101f357fe5b0685038115156101ff57fe5b049250828403915060046000815480929190600101919050559050336003600083815260200190815260200160002060006101000a81548173ffffffffffffffffffffffffffffffffffffffff021916908373ffffffffffffffffffffffffffffffffffffffff1602179055507f6d60dae10ee9bede5e8df9a323cf4b46933f3ad6c6009c3f8e6dcee55947d8153382604051808373ffffffffffffffffffffffffffffffffffffffff1673ffffffffffffffffffffffffffffffffffffffff1681526020018281526020019250505060405180910390a1600260009054906101000a900473ffffffffffffffffffffffffffffffffffffffff1673ffffffffffffffffffffffffffffffffffffffff166323b872dd336000809054906101000a900473ffffffffffffffffffffffffffffffffffffffff16866040518463ffffffff167c0100000000000000000000000000000000000000000000000000000000028152600401808473ffffffffffffffffffffffffffffffffffffffff1673ffffffffffffffffffffffffffffffffffffffff1681526020018373ffffffffffffffffffffffffffffffffffffffff1673ffffffffffffffffffffffffffffffffffffffff1681526020018281526020019350505050602060405180830381600087803b1580156103f157600080fd5b505af1158015610405573d6000803e3d6000fd5b505050506040513d602081101561041b57600080fd5b810190808051906020019092919050505050600260009054906101000a900473ffffffffffffffffffffffffffffffffffffffff1673ffffffffffffffffffffffffffffffffffffffff1663b4935bbd33846040518363ffffffff167c0100000000000000000000000000000000000000000000000000000000028152600401808373ffffffffffffffffffffffffffffffffffffffff1673ffffffffffffffffffffffffffffffffffffffff16815260200182815260200192505050600060405180830381600087803b1580156104f257600080fd5b505af1158015610506573d6000803e3d6000fd5b5050505050505050565b60006003600084815260200190815260200160002060009054906101000a900473ffffffffffffffffffffffffffffffffffffffff169050600260009054906101000a900473ffffffffffffffffffffffffffffffffffffffff1673ffffffffffffffffffffffffffffffffffffffff1663245f1a1d82846040518363ffffffff167c0100000000000000000000000000000000000000000000000000000000028152600401808373ffffffffffffffffffffffffffffffffffffffff1673ffffffffffffffffffffffffffffffffffffffff16815260200182815260200192505050602060405180830381600087803b15801561060d57600080fd5b505af1158015610621573d6000803e3d6000fd5b505050506040513d602081101561063757600080fd5b810190808051906020019092919050505050505050565b60036020528060005260406000206000915054906101000a900473ffffffffffffffffffffffffffffffffffffffff1681565b6000600260009054906101000a900473ffffffffffffffffffffffffffffffffffffffff1673ffffffffffffffffffffffffffffffffffffffff166318160ddd6040518163ffffffff167c0100000000000000000000000000000000000000000000000000000000028152600401602060405180830381600087803b15801561070957600080fd5b505af115801561071d573d6000803e3d6000fd5b505050506040513d602081101561073357600080fd5b8101908080519060200190929190505050905090565b600060046000815480929190600101919050559050336003600083815260200190815260200160002060006101000a81548173ffffffffffffffffffffffffffffffffffffffff021916908373ffffffffffffffffffffffffffffffffffffffff1602179055507f6d60dae10ee9bede5e8df9a323cf4b46933f3ad6c6009c3f8e6dcee55947d8153382604051808373ffffffffffffffffffffffffffffffffffffffff1673ffffffffffffffffffffffffffffffffffffffff1681526020018281526020019250505060405180910390a1505600a165627a7a72305820ffcf11755b832c3fe0da4c7e8c6580cd5e220a767c49230abf72290df774be6e0029",
  "source": "pragma solidity ^0.4.19;\n\ncontract Erc20Interface {\n\n    //THIS SHOULD BE SAFE\n    function unsafe_mint(address _to, uint256 _amount) public returns (bool);\n    function transferFrom(address _from, address _to, uint256 _value) public returns (bool);\n    function unsafe_burn(address _who, uint256 _value) public;\n    function totalSupply() public view returns (uint256);\n\n}\n\ncontract Gateway {\n\n    address foundationAddress = 0x3e0FCAf8CEDC54Bd3B498A8Bd12F14Ff5d5C1FbF;\n\n    address erc20Address = 0x8be758ae4820433c59b9e6146de8226f79a95c71;\n    Erc20Interface erc20Contract = Erc20Interface(erc20Address);\n\n    event ReadyForTransaction(address walletId, uint TransactionRef);\n\n    mapping (uint => address) public referenceTransactionToOwner;\n\n    uint NoOfTransactions = 1;\n\n    function initializeTransaction () public {\n        uint TransactionRef = NoOfTransactions++;\n        referenceTransactionToOwner[TransactionRef] = msg.sender;\n        emit ReadyForTransaction(msg.sender,TransactionRef);\n    }\n\n    //THIS FUNCTION SHOULD BE OWNER ONLY\n    function depositFunds(uint _TransactionRef, uint _Amount) public {\n        address TransactionOwner = referenceTransactionToOwner[_TransactionRef];\n        //MINT MONEY TO OWNERS ACCOUNT\n        erc20Contract.unsafe_mint(TransactionOwner, _Amount);\n    }\n\n    function withdrawFunds(uint _Amount) public {\n        //Foundation cannot withdraw\n        require(msg.sender !=foundationAddress);\n\n        uint AmountToFoundation = (_Amount - _Amount%10)/10;\n        uint AmountToSender = _Amount - AmountToFoundation;\n        uint TransactionRef = NoOfTransactions++;\n        referenceTransactionToOwner[TransactionRef] = msg.sender;\n        emit ReadyForTransaction(msg.sender,TransactionRef);\n        //Transfer fee to foundation\n        erc20Contract.transferFrom(msg.sender, foundationAddress, AmountToFoundation);\n        //BurnRemaining to withdraw\n        erc20Contract.unsafe_burn(msg.sender, AmountToSender);\n    }\n\n    function checkErc20Balance() public view returns (uint256){\n        return erc20Contract.totalSupply();\n    }\n\n}",
  "sourcePath": "/Users/julian/github/chiemgauer/contracts/Gateway.sol",
  "compiler": {
    "name": "solc",
    "version": "0.4.23+commit.124ca40d.Emscripten.clang"
  },
  "schemaVersion": "2.0.0",
  "updatedAt": "2018-04-22T15:48:28.080Z"
}