{
  "contractName": "Gateway",
  "abi": [
    {
      "constant": true,
      "inputs": [
        {
          "name": "",
          "type": "uint256"
        }
      ],
      "name": "referenceTransactionToOwner",
      "outputs": [
        {
          "name": "",
          "type": "address"
        }
      ],
      "payable": false,
      "stateMutability": "view",
      "type": "function"
    },
    {
      "constant": true,
      "inputs": [],
      "name": "owner",
      "outputs": [
        {
          "name": "",
          "type": "address"
        }
      ],
      "payable": false,
      "stateMutability": "view",
      "type": "function"
    },
    {
      "constant": true,
      "inputs": [],
      "name": "erc20ContractAddress",
      "outputs": [
        {
          "name": "",
          "type": "address"
        }
      ],
      "payable": false,
      "stateMutability": "view",
      "type": "function"
    },
    {
      "constant": false,
      "inputs": [
        {
          "name": "newOwner",
          "type": "address"
        }
      ],
      "name": "transferOwnership",
      "outputs": [],
      "payable": false,
      "stateMutability": "nonpayable",
      "type": "function"
    },
    {
      "anonymous": false,
      "inputs": [
        {
          "indexed": false,
          "name": "TransactionRef",
          "type": "uint256"
        },
        {
          "indexed": false,
          "name": "walletId",
          "type": "address"
        },
        {
          "indexed": false,
          "name": "Amount",
          "type": "uint256"
        }
      ],
      "name": "DepositFundsDirectlyComplete",
      "type": "event"
    },
    {
      "anonymous": false,
      "inputs": [
        {
          "indexed": true,
          "name": "previousOwner",
          "type": "address"
        },
        {
          "indexed": true,
          "name": "newOwner",
          "type": "address"
        }
      ],
      "name": "OwnershipTransferred",
      "type": "event"
    },
    {
      "constant": false,
      "inputs": [
        {
          "name": "_address",
          "type": "address"
        }
      ],
      "name": "setErc20ContractAddress",
      "outputs": [],
      "payable": false,
      "stateMutability": "nonpayable",
      "type": "function"
    },
    {
      "constant": false,
      "inputs": [
        {
          "name": "_TransactionRef",
          "type": "uint256"
        },
        {
          "name": "_Receiver",
          "type": "address"
        },
        {
          "name": "_Amount",
          "type": "uint256"
        }
      ],
      "name": "depositFundsDirectly",
      "outputs": [],
      "payable": false,
      "stateMutability": "nonpayable",
      "type": "function"
    },
    {
      "constant": false,
      "inputs": [
        {
          "name": "_TransactionRef",
          "type": "uint256"
        },
        {
          "name": "_Receiver",
          "type": "address"
        },
        {
          "name": "_Amount",
          "type": "uint256"
        }
      ],
      "name": "UnsafeDepositFundsDirectly",
      "outputs": [],
      "payable": false,
      "stateMutability": "nonpayable",
      "type": "function"
    },
    {
      "constant": false,
      "inputs": [
        {
          "name": "_TransactionHash",
          "type": "uint256"
        },
        {
          "name": "_Sender",
          "type": "address"
        },
        {
          "name": "_Amount",
          "type": "uint256"
        }
      ],
      "name": "withdrawFunds",
      "outputs": [],
      "payable": false,
      "stateMutability": "nonpayable",
      "type": "function"
    }
  ],
  "bytecode": "0x608060405260018054600160a060020a0319908116735e7979a7a445565c167b89598d849625968c8eef1791829055600280548216600160a060020a0393841617905560008054339093169290911691909117905561060d806100636000396000f30060806040526004361061008d5763ffffffff7c010000000000000000000000000000000000000000000000000000000060003504166329853f60811461009257806350f9c409146100bb57806353e1a01f146100dc57806389bc2246146101035780638da5cb5b14610137578063e486df151461014c578063f2fde38b14610161578063f8f34cde14610182575b600080fd5b34801561009e57600080fd5b506100b9600435600160a060020a03602435166044356101a9565b005b3480156100c757600080fd5b506100b9600160a060020a03600435166102ff565b3480156100e857600080fd5b506100b9600435600160a060020a0360243516604435610349565b34801561010f57600080fd5b5061011b600435610426565b60408051600160a060020a039092168252519081900360200190f35b34801561014357600080fd5b5061011b610441565b34801561015857600080fd5b5061011b610450565b34801561016d57600080fd5b506100b9600160a060020a036004351661045f565b34801561018e57600080fd5b506100b9600435600160a060020a03602435166044356104f7565b60005433600160a060020a039081169116146101c457600080fd5b600083815260036020526040902054600160a060020a0316156101e657600080fd5b6000838152600360209081526040808320805473ffffffffffffffffffffffffffffffffffffffff1916600160a060020a0387811691821790925560025483517f245f1a1d0000000000000000000000000000000000000000000000000000000081526004810192909252602482018790529251929091169363245f1a1d9360448084019491939192918390030190829087803b15801561028657600080fd5b505af115801561029a573d6000803e3d6000fd5b505050506040513d60208110156102b057600080fd5b505060408051848152600160a060020a038416602082015280820183905290517f1b477d4ffd1ca09a8d5729ace12ef235f2ff55667dc71c8521a15a7f2763dda39181900360600190a1505050565b60005433600160a060020a0390811691161461031a57600080fd5b6002805473ffffffffffffffffffffffffffffffffffffffff1916600160a060020a0392909216919091179055565b60005433600160a060020a0390811691161461036457600080fd5b600083815260036020526040902054600160a060020a03161561038657600080fd5b6000838152600360209081526040808320805473ffffffffffffffffffffffffffffffffffffffff1916600160a060020a0387811691821790925560025483517f40c10f19000000000000000000000000000000000000000000000000000000008152600481019290925260248201879052925192909116936340c10f199360448084019491939192918390030190829087803b15801561028657600080fd5b600360205260009081526040902054600160a060020a031681565b600054600160a060020a031681565b600154600160a060020a031681565b60005433600160a060020a0390811691161461047a57600080fd5b600160a060020a038116151561048f57600080fd5b60008054604051600160a060020a03808516939216917f8be0079c531659141344cd1fd0a4f28419497f9722a3daafe3b4186f6b6457e091a36000805473ffffffffffffffffffffffffffffffffffffffff1916600160a060020a0392909216919091179055565b60005433600160a060020a0390811691161461051257600080fd5b600083815260036020526040902054600160a060020a03161561053457600080fd5b600083815260036020526040808220805473ffffffffffffffffffffffffffffffffffffffff1916600160a060020a038681169190911790915560025482517f42966c680000000000000000000000000000000000000000000000000000000081526004810186905292519116926342966c68926024808201939182900301818387803b1580156105c457600080fd5b505af11580156105d8573d6000803e3d6000fd5b505050505050505600a165627a7a7230582051715dfb9c4245fe3c94a7cd56fe8d64f0b7a9b56a29ded0fb71960e3328f5de0029",
  "source": "pragma solidity ^0.4.19;\n\nimport '../node_modules/openzeppelin-solidity/contracts/ownership/Ownable.sol';\n\ncontract Erc20Interface {\n\n    //UNSAFE MINT FOR DEBUGGUGGING PURPOSES\n    function unsafe_mint(address _to, uint256 _amount) public returns (bool);\n\n    function mint(address _to, uint256 _amount) public returns (bool);\n    function burn(uint256 _value) public;\n\n}\n\ncontract Gateway is Ownable {\n\n    //TODO, TransactionRef and TransactionHash should not be an uint, but a short string of 67 char\n\n    address public erc20ContractAddress = 0x5e7979a7a445565c167b89598d849625968c8eef;\n\n    Erc20Interface erc20Contract = Erc20Interface(erc20ContractAddress);\n\n    event DepositFundsDirectlyComplete(uint TransactionRef, address walletId, uint Amount);\n\n    mapping (uint => address) public referenceTransactionToOwner;\n\n    function setErc20ContractAddress(address _address) external onlyOwner {\n        erc20Contract = Erc20Interface(_address);\n    }\n\n    function depositFundsDirectly(uint _TransactionRef, address _Receiver, uint _Amount) external onlyOwner {\n        //Abort if transactionref has allready been processed\n        require(referenceTransactionToOwner[_TransactionRef]==0);\n        referenceTransactionToOwner[_TransactionRef]=_Receiver;\n        //Mint amount to receivers wallet\n        erc20Contract.mint(_Receiver, _Amount);\n        //Raise event for notify user on deposit complete\n        emit DepositFundsDirectlyComplete(_TransactionRef, _Receiver, _Amount);\n    }\n\n    function UnsafeDepositFundsDirectly(uint _TransactionRef, address _Receiver, uint _Amount) external onlyOwner {\n        //Abort if transactionref has allready been processed\n        require(referenceTransactionToOwner[_TransactionRef]==0);\n        referenceTransactionToOwner[_TransactionRef]=_Receiver;\n        //Mint amount to receivers wallet\n        //UNSAFE MINT FOR DEBUGGUGGING PURPOSES\n        erc20Contract.unsafe_mint(_Receiver, _Amount);\n        //Raise event for notify user on deposit complete\n        emit DepositFundsDirectlyComplete(_TransactionRef, _Receiver, _Amount);\n    }\n\n    function withdrawFunds(uint _TransactionHash, address _Sender, uint _Amount) external onlyOwner {\n        //Abort if transactionHash has allready been processed\n        require(referenceTransactionToOwner[_TransactionHash]==0);\n        referenceTransactionToOwner[_TransactionHash]=_Sender;\n\n        erc20Contract.burn(_Amount);\n    }\n\n}",
  "sourcePath": "/Users/julian/github/chiemgauer/contracts/Gateway.sol",
  "compiler": {
    "name": "solc",
    "version": "0.4.23+commit.124ca40d.Emscripten.clang"
  },
  "schemaVersion": "2.0.0",
  "updatedAt": "2018-05-10T13:29:58.010Z"
}