{
  "contractName": "StandardBurnableToken",
  "abi": [
    {
      "constant": false,
      "inputs": [
        {
          "name": "_spender",
          "type": "address"
        },
        {
          "name": "_value",
          "type": "uint256"
        }
      ],
      "name": "approve",
      "outputs": [
        {
          "name": "",
          "type": "bool"
        }
      ],
      "payable": false,
      "stateMutability": "nonpayable",
      "type": "function"
    },
    {
      "constant": true,
      "inputs": [],
      "name": "totalSupply",
      "outputs": [
        {
          "name": "",
          "type": "uint256"
        }
      ],
      "payable": false,
      "stateMutability": "view",
      "type": "function"
    },
    {
      "constant": false,
      "inputs": [
        {
          "name": "_from",
          "type": "address"
        },
        {
          "name": "_to",
          "type": "address"
        },
        {
          "name": "_value",
          "type": "uint256"
        }
      ],
      "name": "transferFrom",
      "outputs": [
        {
          "name": "",
          "type": "bool"
        }
      ],
      "payable": false,
      "stateMutability": "nonpayable",
      "type": "function"
    },
    {
      "constant": false,
      "inputs": [
        {
          "name": "_value",
          "type": "uint256"
        }
      ],
      "name": "burn",
      "outputs": [],
      "payable": false,
      "stateMutability": "nonpayable",
      "type": "function"
    },
    {
      "constant": false,
      "inputs": [
        {
          "name": "_spender",
          "type": "address"
        },
        {
          "name": "_subtractedValue",
          "type": "uint256"
        }
      ],
      "name": "decreaseApproval",
      "outputs": [
        {
          "name": "",
          "type": "bool"
        }
      ],
      "payable": false,
      "stateMutability": "nonpayable",
      "type": "function"
    },
    {
      "constant": true,
      "inputs": [
        {
          "name": "_owner",
          "type": "address"
        }
      ],
      "name": "balanceOf",
      "outputs": [
        {
          "name": "",
          "type": "uint256"
        }
      ],
      "payable": false,
      "stateMutability": "view",
      "type": "function"
    },
    {
      "constant": false,
      "inputs": [
        {
          "name": "_to",
          "type": "address"
        },
        {
          "name": "_value",
          "type": "uint256"
        }
      ],
      "name": "transfer",
      "outputs": [
        {
          "name": "",
          "type": "bool"
        }
      ],
      "payable": false,
      "stateMutability": "nonpayable",
      "type": "function"
    },
    {
      "constant": false,
      "inputs": [
        {
          "name": "_spender",
          "type": "address"
        },
        {
          "name": "_addedValue",
          "type": "uint256"
        }
      ],
      "name": "increaseApproval",
      "outputs": [
        {
          "name": "",
          "type": "bool"
        }
      ],
      "payable": false,
      "stateMutability": "nonpayable",
      "type": "function"
    },
    {
      "constant": true,
      "inputs": [
        {
          "name": "_owner",
          "type": "address"
        },
        {
          "name": "_spender",
          "type": "address"
        }
      ],
      "name": "allowance",
      "outputs": [
        {
          "name": "",
          "type": "uint256"
        }
      ],
      "payable": false,
      "stateMutability": "view",
      "type": "function"
    },
    {
      "anonymous": false,
      "inputs": [
        {
          "indexed": true,
          "name": "burner",
          "type": "address"
        },
        {
          "indexed": false,
          "name": "value",
          "type": "uint256"
        }
      ],
      "name": "Burn",
      "type": "event"
    },
    {
      "anonymous": false,
      "inputs": [
        {
          "indexed": true,
          "name": "owner",
          "type": "address"
        },
        {
          "indexed": true,
          "name": "spender",
          "type": "address"
        },
        {
          "indexed": false,
          "name": "value",
          "type": "uint256"
        }
      ],
      "name": "Approval",
      "type": "event"
    },
    {
      "anonymous": false,
      "inputs": [
        {
          "indexed": true,
          "name": "from",
          "type": "address"
        },
        {
          "indexed": true,
          "name": "to",
          "type": "address"
        },
        {
          "indexed": false,
          "name": "value",
          "type": "uint256"
        }
      ],
      "name": "Transfer",
      "type": "event"
    },
    {
      "constant": false,
      "inputs": [
        {
          "name": "_from",
          "type": "address"
        },
        {
          "name": "_value",
          "type": "uint256"
        }
      ],
      "name": "burnFrom",
      "outputs": [],
      "payable": false,
      "stateMutability": "nonpayable",
      "type": "function"
    }
  ],
  "bytecode": "0x608060405234801561001057600080fd5b506108eb806100206000396000f3006080604052600436106100a35763ffffffff7c0100000000000000000000000000000000000000000000000000000000600035041663095ea7b381146100a857806318160ddd146100e057806323b872dd1461010757806342966c6814610131578063661884631461014b57806370a082311461016f57806379cc679014610190578063a9059cbb146101b4578063d73dd623146101d8578063dd62ed3e146101fc575b600080fd5b3480156100b457600080fd5b506100cc600160a060020a0360043516602435610223565b604080519115158252519081900360200190f35b3480156100ec57600080fd5b506100f561028d565b60408051918252519081900360200190f35b34801561011357600080fd5b506100cc600160a060020a0360043581169060243516604435610293565b34801561013d57600080fd5b50610149600435610413565b005b34801561015757600080fd5b506100cc600160a060020a0360043516602435610420565b34801561017b57600080fd5b506100f5600160a060020a0360043516610519565b34801561019c57600080fd5b50610149600160a060020a0360043516602435610534565b3480156101c057600080fd5b506100cc600160a060020a03600435166024356105d3565b3480156101e457600080fd5b506100cc600160a060020a03600435166024356106cc565b34801561020857600080fd5b506100f5600160a060020a036004358116906024351661076e565b600160a060020a03338116600081815260026020908152604080832094871680845294825280832086905580518681529051929493927f8c5be1e5ebec7d5bd14f71427d1e84f3dd0314c0f7b2291e5b200ac8c7c3b925929181900390910190a350600192915050565b60015490565b6000600160a060020a03831615156102aa57600080fd5b600160a060020a0384166000908152602081905260409020548211156102cf57600080fd5b600160a060020a038085166000908152600260209081526040808320339094168352929052205482111561030257600080fd5b600160a060020a03841660009081526020819052604090205461032b908363ffffffff61079916565b600160a060020a038086166000908152602081905260408082209390935590851681522054610360908363ffffffff6107ab16565b600160a060020a03808516600090815260208181526040808320949094558783168252600281528382203390931682529190915220546103a6908363ffffffff61079916565b600160a060020a038086166000818152600260209081526040808320338616845282529182902094909455805186815290519287169391927fddf252ad1be2c89b69c2b068fc378daa952ba7f163c4a11628f55a4df523b3ef929181900390910190a35060019392505050565b61041d33826107be565b50565b600160a060020a0333811660009081526002602090815260408083209386168352929052908120548083111561047d57600160a060020a0333811660009081526002602090815260408083209388168352929052908120556104b4565b61048d818463ffffffff61079916565b600160a060020a033381166000908152600260209081526040808320938916835292905220555b600160a060020a0333811660008181526002602090815260408083209489168084529482529182902054825190815291517f8c5be1e5ebec7d5bd14f71427d1e84f3dd0314c0f7b2291e5b200ac8c7c3b9259281900390910190a35060019392505050565b600160a060020a031660009081526020819052604090205490565b600160a060020a038083166000908152600260209081526040808320339094168352929052205481111561056757600080fd5b600160a060020a038083166000908152600260209081526040808320339094168352929052205461059e908263ffffffff61079916565b600160a060020a03808416600090815260026020908152604080832033909416835292905220556105cf82826107be565b5050565b6000600160a060020a03831615156105ea57600080fd5b600160a060020a03331660009081526020819052604090205482111561060f57600080fd5b600160a060020a033316600090815260208190526040902054610638908363ffffffff61079916565b600160a060020a03338116600090815260208190526040808220939093559085168152205461066d908363ffffffff6107ab16565b600160a060020a03808516600081815260208181526040918290209490945580518681529051919333909316927fddf252ad1be2c89b69c2b068fc378daa952ba7f163c4a11628f55a4df523b3ef92918290030190a350600192915050565b600160a060020a033381166000908152600260209081526040808320938616835292905290812054610704908363ffffffff6107ab16565b600160a060020a0333811660008181526002602090815260408083209489168084529482529182902085905581519485529051929391927f8c5be1e5ebec7d5bd14f71427d1e84f3dd0314c0f7b2291e5b200ac8c7c3b9259281900390910190a350600192915050565b600160a060020a03918216600090815260026020908152604080832093909416825291909152205490565b6000828211156107a557fe5b50900390565b818101828110156107b857fe5b92915050565b600160a060020a0382166000908152602081905260409020548111156107e357600080fd5b600160a060020a03821660009081526020819052604090205461080c908263ffffffff61079916565b600160a060020a038316600090815260208190526040902055600154610838908263ffffffff61079916565b600155604080518281529051600160a060020a038416917fcc16f5dbb4873280815c1ee09dbd06736cffcc184412cf7a71a0fdb75d397ca5919081900360200190a2604080518281529051600091600160a060020a038516917fddf252ad1be2c89b69c2b068fc378daa952ba7f163c4a11628f55a4df523b3ef9181900360200190a350505600a165627a7a723058206c6315215191ee1b93e18c75d2008c350143c00569d7263d2880ec9a91b93aa30029",
  "source": "pragma solidity ^0.4.18;\n\nimport \"./BurnableToken.sol\";\nimport \"./StandardToken.sol\";\n\n/**\n * @title Standard Burnable Token\n * @dev Adds burnFrom method to ERC20 implementations\n */\ncontract StandardBurnableToken is BurnableToken, StandardToken {\n\n  /**\n   * @dev Burns a specific amount of tokens from the target address and decrements allowance\n   * @param _from address The address which you want to send tokens from\n   * @param _value uint256 The amount of token to be burned\n   */\n  function burnFrom(address _from, uint256 _value) public {\n    require(_value <= allowed[_from][msg.sender]);\n    // Should https://github.com/OpenZeppelin/zeppelin-solidity/issues/707 be accepted,\n    // this function needs to emit an event with the updated approval.\n    allowed[_from][msg.sender] = allowed[_from][msg.sender].sub(_value);\n    _burn(_from, _value);\n  }\n}\n",
  "sourcePath": "/Users/julian/github/chiemgauer/node_modules/openzeppelin-solidity/contracts/token/ERC20/StandardBurnableToken.sol",
  "compiler": {
    "name": "solc",
    "version": "0.4.23+commit.124ca40d.Emscripten.clang"
  },
  "schemaVersion": "2.0.0",
  "updatedAt": "2018-05-22T16:00:37.048Z"
}